S01C00006E63702D756172742D68772D65667233326D6731332E7333379B
S3150000000008E500201DAB02002569000021A70200BB
S31500000010A70A0A010002000004180FAC2065480177
S3150000002000000000000000000000000000000000CA
S315000000300000000098B00200000000000000000070
S315000000400000000000000000FFFFFFFFFFFFFFFFB2
S31500000050FFFFFFFF00700700000000000000000027
S31500000060FFFFFFFFFFFFFFFF28000000000000006A
S31500000070000000000000000000000000000000007A
S315000000800000000000000000F4FD0020F4FD002048
S3150000009008E5002038CE02003AAB0200A8DB0020BB
S311000000A000000000000008000000000046
S3150000020008E500201DAB02002569000021A70200B9
S3150000021029A7020025A702002DA702000000000062
S315000002200000000000000000000000008B06000037
S3150000023031A7020000000000730700004F1B0000FA
S31500000240A5AB0000B1540200D92E000039A7020068
S31500000250B5500200EB540200B7540200B954020034
S31500000260B3540200C7F9000035FC0000277A0000ED
S315000002709540000039A7020039A70200FBA802003A
S315000002807F1E000039A7020043FC000039A70200C8
S3150000029039A7020039A7020039A7020039A70200D0
S315000002A039A7020039A7020039A7020039A70200C0
S315000002B0ED540200B55402007DAA0200D376000078
S315000002C02155020039A702006DAA020039A70200D3
S315000002D039A7020039A7020039A7020039A7020090
S315000002E039A70200D72C0000AB3C000039A702005A
S315000002F039A7020039A7020000000000104210B51D
S315000003008949894A01E021B1491E1369DC07FAD4FB
S3150000031011B96FF0020010BD506001201060116924
S31500000320480702D54FF0FF3010BD002010BD2DE963
S31500000330F041044610460B460022002B41D06FF0D8
S315000003400105301024087749784FA8B994469C4592
S3150000035037D254F8040BF8600CF1010C0820386011
S31500000360084601E080B3401E3E69F65E102458B38D
S3150000037038698007EBD523E0EFF3108072B6944618
S315000003800FE03E6906F01906102E08BF3E603E6972
S315000003903607F6D542336BFE42400A10263E609C75
S315000003A045F3D318B962B6A610013869C3481009D7
S315000003B001B942463869810700D52A8E106BBDE81F
S315000003C0F0814246FAE72DE9F84F574CA56BADB2DE
S315000003D005B1012541F67136A6634FEA9208534EE0
S315000003E037683668266846F0010626604FF0000931
S315000003F006468A469B46002013E0C7F30A07C7F560
S315000004000067BF08A8EB0900B84238BF07465A463E
S3150000041039465046FFF788FF010010D1B9440AEB70
S31500000420870AC1450BD206EB8907381812641810E3
S315000004302EE2D0216849084900216003E022685273
S315000004400852002260EDB20DB10021A163BDE8F2B1
S315000004508F70B5344B32490246986B80B200B101B9
S31500000460208E3008349C63304C256824681E8A240C
S31500000470101E609A6001225A605C69620704D5000A
S31500000480F021F868100170BD021424185A69D407C7
S3150000049010D5002918BF491EF8D10BE000291968AC
S315000004A004D100F010F89E100D70BD00F00BF8009E
S315000004B02070BD5A699407F03C12031812011832D5
S315000004C019941016196008B100209863704700232C
S315000004D074E71248816B89B201B1012184102D3273
S315000004E0826346F21A32036843F001030360C26472
S315000004F04FF4807343604269D307FCD40022C26480
S31500000500C9B203685B085B00036001B182636413D0
S315000005104700011007809698000C000E4008040062
S315000005200204300E400000002DE9F84F8046DFF847
S315000005307C902122FF21484600F08FF8DFF870B04A
S315000005404FF49272FF21584600F087F819481A4F67
S315000005501A4C00904FF0210A0026A25D1849BD5D95
S31500000560885D521C02EBD272521000B11932154846
S3150000057030F816100098D21C6A4300F08AF8012D54
S315000005801CBF2BF816A0AA44761C212EE5DB2123DE
S315000005904FF4805240F27A510B4800F07AF84946FF
S315000005A04046BDE8F44F00F0D4BB00BF9CED0020F0
S315000005B074EE00203CAB0200A8AD020084AD020040
S315000005C060AD02001CAD020058AB020070B581425E
S315000005D024D210441144401E491E10E011F801397E
S315000005E000F80139121F11F8014900F8014911F804
S315000005F0015900F8015911F8016900F8016993B22F
S31500000600042BEBDA93B2002B1EBF11F8013900F868
S315000006100139521EF6D170BD00F00DF893B2042BCD
S31500000620FADA93B2002B1EBF11F8013B00F8013B2A
S31500000630521EF6D170BD11F8013B00F8013B121FA6
S3150000064011F8014B00F8014B11F8015B00F8015B52
S3150000065011F8016B00F8016B7047130003D00A46CE
S31500000660194601F041BA704710B5034600E0521E24
S3150000067090B218B100F003F8F9D0001B10BD13F8C2
S31500000680010B11F8014BA0427047FEE72F49087095
S3150000069070470EB430B52D490446087820B301F0F2
S315000006A0AFFA08B301F0EAFB012001F0F4FBFF28E2
S315000006B0054619D001F0E4FB022101F0A7FA014634
S315000006C0284601F0E3FB03AB22462946204801F009
S315000006D0B6FF30B1284601F007FB10B1042000F048
S315000006E00BF8284601F041FC30BC5DF810FB0C22EB
S315000006F000211848FFF7B1BF164931F81020521CE7
S3150000070021F8102070470CB480B502AA02F0ECF86C
S3150000071001BC5DF80CFB0D4A1178A1B9010018BFA8
S31500000720012810D0042818BF05280CD0312818BF7E
S31500000730332808D037281EBF3B284FF6FF71884262
S3150000074001D001207047002070470000BEFD002048
S315000007508921000008F40020302818BF322806D06E
S3150000076034281CBF3628382801D0002070470120C5
S315000007707047FEE730B5DFF8485ADFF8484A2B885D
S315000007802468C01A04EB4004002004E034F810305A
S3150000079021F81030401C9042F8DB002030BDDFF815
S315000007A0203ADFF8201A1A880968801A01EB4001FE
S315000007B0022002F0B9B9F8B504460F461646DFF82E
S315000007C0045AF0B208B34FF6FF70ADF800000020EF
S315000007D017F8011BC3B2401C0DF80310761EC1B2F8
S315000007E0022902DAF1B20029F2D1DFF8D4E9286849
S315000007F0BEF800301FFA84FCACEB030300F01CFFCC
S31500000800641C0100DDD000F0EBBB0120F2BDF8B5A1
S3150000081004460D461646F0B288B1012200F010F8E3
S31500000820641C0020C2B2401C1DF80230761EC7B2FE
S31500000830022F05F8013BEEDAF1B20029F2D1F1BD43
S315000008406946A0B296E70146DFF87C09DFF87C2905
S31500000850405C525CDFF8C03B595C09B102F5997205
S3150000086040EAC21080B2704710B5DFF85C39DFF895
S31500000870AC2B1C5C012C1CBF32F81000081802EBD4
S31500000880400010BD70B590B005460C464FF6FF7699
S3150000089004E0A8B2FFF783FF203D2035A9B28C42C1
S315000008A00DD3202201F00AF8002082B23DF8123062
S315000008B0B342EED1401C81B22029F6DBEDE710B041
S315000008C070BD10B5044661882088FFF7DBFF012163
S315000008D0DFF84C2BDFF84C3BA171208811784118CA
S315000008E0188801EB4001891DA18010BD10B5DFF805
S315000008F0384B00F087F800F040F900F03BF9DFF8DC
S31500000900840C04F10801446004F110028160C260A5
S3150000091010BD2DE9F0430446DFF8040B0778B9460D
S31500000920B9F1060F85B003DD4FF4377100F010FB07
S315000009300021A1717A1C208892B201A9FFF71AFF43
S31500000940BDF804104FF6FF76B14218BF002910D04B
S315000009500DF10408711A38F81900884209D10125E9
S315000009604D454BDA38F8150040B1BDF80410884201
S3150000097014D000F047F805B0BDE8F083DFF8081C96
S315000009800A88208812FB052141186A43711810183D
S3150000099089B280B2FFF776FF0221A1716D1CDFE7F5
S315000009A02088381800F08EFFBDF80200000B48457D
S315000009B0DFD120883818401D00F085FFBDF80210F1
S315000009C0BDF80200711A000A01F0FF018842D0D179
S315000009D00320A071012220883F187F1C6946B8B207
S315000009E0FFF7C8FEBDF80000FF2802D10421A1715F
S315000009F0C1E7B042BFD00028BBD1BCE7A07902282E
S31500000A00CED1B8E720465CE7F8B5DFF81C4ADFF838
S31500000A10745B002004F1080104F11002A071A073B8
S31500000A20A075A960EA606C602046FFF772FF04F1CA
S31500000A300800FFF76EFF04F11000FFF76AFFA179C7
S31500000A40A07BDFF88067042908D100220428ADF8CE
S31500000A50002046D1FFF74AFF0120F2BDA17D042800
S31500000A602BD100200429ADF80000F3D0FFF7CAFF10
S31500000A7000F080F83068DFF8A869238900F080F874
S31500000A80060040D10320A073A07903284AD1A07B99
S31500000A90032802D1A07D012863D0A07901284AD17C
S31500000AA0A07B032854D1A07D012818BF0328D1D1EB
S31500000AB004F1080004F1100157E004292BD10020AD
S31500000AC0ADF80000FFF79EFF00F057F83068DFF83A
S31500000AD05069238A00F054F8060014D10320A0754B
S31500000AE019E0A07D0428B5D000F047F800F042F8E0
S31500000AF03068DFF82C69238800F042F8060002D13E
S31500000B000320A0710AE0304602F08EF81EB14FF4C1
S31500000B10747100F01DFAA0790328B5D1A07B0128D5
S31500000B20B5D1B7E70228B8D1A07B032804BFA07DC2
S31500000B3001288FD1BCE7032804BFA07B012889D1F7
S31500000B40A07D03280BD104F11000214608340CE0E7
S31500000B50022812BF0128A07D0328F0D1F3E702285E
S31500000B60EDD1204604F1080110346860EC60A960FC
S31500000B700020F2BD04F11000A3E604F10800A0E68F
S31500000B803778DFF83C66FF1833887F1CFF1A01228E
S31500000B90694600EB470001F0F2BF2DE9FE4F06461D
S31500000BA0DFF87C08DFF8888ADFF8889A0F46017834
S31500000BB0ADF80810012234880C19641DFFF740FEB9
S31500000BC0DFF86018BDF80000B1F800A0641C000A48
S31500000BD0ADF8000050451CBF0121397000251AE010
S31500000BE0401CC1B2514514D25FFA80FB39F81B1084
S31500000BF0BDF806209142F3D1C0B2FFF724FEBDF83E
S31500000C0004304FF6807210401340984208BF08F82F
S31500000C100B506D1CADB2BDF80000854206DA02220B
S31500000C2001A9FFF70EFEA41C0020DAE70020D1463A
S31500000C3001E0401C80B2484517DA18F800108142DE
S31500000C40F7D00120387010E021F815A00DE001283A
S31500000C50DFF8C817F8D0BBF17F0F31F8150008BFD1
S31500000C604FF0000B584421F810A0A1B27088C01EA6
S31500000C7088424FF6FF7A28DB00F066F8BDF80200DE
S31500000C80FF25504521D0601C00F0D4FDBDF80200C0
S31500000C90BDF80610AAEB0002914213D104F1030A33
S31500000CA0040A00F07F0BBDF8000084420ADA002037
S31500000CB000E0401C484518DA18F80010A142F8D1A7
S31500000CC0C5B212E0012038700DE0B4807088A1B280
S31500000CD0884208D300F038F8BDF80200641C50457D
S31500000CE0F4D001213970BDE8F78F3088BDF808309F
S31500000CF0181800EB4400801D012201A980B2FFF7FD
S31500000D0039FDBDF80400C0F3C710401C00EBD070DD
S31500000D100AEB60047088A1B28842D3D3FF2DA4D019
S31500000D20DFF8A404405DBBF17F0F14BF59460021D4
S31500000D30814286DABDF80210DFF8DC26535D09062B
S31500000D40C90F994283D07CE701220DF10201A0B2BE
S31500000D5010E5F8B58DF80000DFF8AC1BDFF860048D
S31500000D60DFF8C0460288DFF8C00602800B884380A1
S31500000D70DFF8AC361D782188DFF8903BDFF8904B22
S31500000D80AA1802EB4102921D8280002282711A8803
S31500000D900281AA1802EB41022388DFF8784B4381CF
S31500000DA0921D828100228273DFF86C3B1A880282D0
S31500000DB0AA1802EB4101891D2388DFF8C847818202
S31500000DC043820021817501F081FF002853D12070F4
S31500000DD0FFF71AFE9DF80010084318BF01208DF892
S31500000DE000000122606800882818801CA11C80B2BF
S31500000DF0FFF7C0FC9DF8000000283FD16068DFF8CF
S31500000E001C766946FFF7C9FEDFF8880B0688A068DE
S31500000E108179032924D16946FFF7BFFE6168DFF8AF
S31500000E20A823002012E0DFF8FC351B88984202DA7E
S31500000E30135C012B09D137F81030B1F800C06345B7
S31500000E4024BFB1F802E09E450AD2401CB042EADB5C
S31500000E5002208871A1686068E2686160A260E06053
S31500000E6000204FF6FF7200E0401CB04206DA37F869
S31500000E7010109142F8D101208DF80000607828B159
S31500000E80012100208DF80010607018E09DF8000028
S31500000E9090B960680388ED18ED1C01220DF102017E
S31500000EA0A8B2FFF767FCBDF80200C0F303100128E3
S31500000EB008BF8DF8000002D09DF80000B8B14D20A3
S31500000EC001F0B2FE6088401C6080E068FFF7F9FC24
S31500000ED09DF8000000F051F838B100F085F820B117
S31500000EE09DF8000000F0A2FA08B90120F2BD00202A
S31500000EF0F2BDF8B50D46DFF82C1517467F2F0A8888
S31500000F0008BF00271E4695423EBFAF4B595D8F4234
S31500000F10044604D2AD4A535D9E4200D11CB940F24C
S31500000F20646100F015F839462846FFF79DFCDFF8A6
S31500000F30641B0388485D28B11946284600F0C9FCA1
S31500000F402060F1BD324621461846BDE8F8405EE411
S31500000F500FF67C3001F0C2BE38B50446084611468D
S31500000F60FFF782FC964D0388DFF82C1B28880A6859
S31500000F701B1A02EB4302226031BDF8B5DFF80416F6
S31500000F80904CDFF8B056002814BFC8688868DFF8B0
S31500000F90901400880A788618B61DB6B2002701E0BC
S31500000FA0B61C7F1CDFF87C0401888F4216DAF8B283
S31500000FB0FFF749FCADF80000B3B235F81700DFF8CB
S31500000FC0DCCABCF800E0ADF80200A3EB0E03206813
S31500000FD0022200F032FB0100E2D001E00120F2BD66
S31500000FE001F022FE0020F2BD2DE9F84FDFF83404AF
S31500000FF0DFF890250188D068DFF82424714C137837
S3150000100084B00025ADF808100188BDF80800CE1898
S3150000101006EB4006B61DB6B200E06D1CBDF8080032
S31500001020854280F2C2804FF0000A78E0BDF80210D7
S315000010305FFA8AF00143ADF802104FF6FF72BDF871
S3150000104002005F490F88BDF80010121AADF804209F
S315000010504FF6FF732068F21B761C994200EB4200A4
S31500001060B6B21DD100F0BBF801002BD12068F71BEA
S31500001070012201A900EB470001F081FD010021D109
S31500001080B61CB6B25148DFF8181AA8F80060425DDF
S3150000109051F825103046FFF78EFB002838D18DE039
S315000010A04A49495D491C01EBD1714FEAC15900F02B
S315000010B096F8010006D12068F31B012201A900F071
S315000010C0BDFA010077D1B61CB6B2D349A8F80060C4
S315000010D0485D002843D0DFF8AC2410780021039146
S315000010E028B103AA6946A8B201F0F4FD05E0BDF8EF
S315000010F00010E8B200F0EDFB0390F71B20684FEA02
S31500001100196203A900EB470001F039FD010052D135
S31500001110DFF89009415D7618B6B20AF1010A2A484D
S31500001120475D5FFA8AF1B942BFF477AFE8B2FFF7DD
S315000011309BFB8046B849B8F80000ADF80000485D52
S31500001140C00140EA0520012FADF802007FF46EAF22
S31500001150BDF8020040F07F00ADF802006DE74FF0E9
S3150000116000085FFA88FBBBEB196FD1DADFF81414BD
S3150000117008780028BDF8000004D100F029F8FFF730
S31500001180F9FA03E000F024F801F0A2FD2068B34468
S31500001190ABEB070301220DF1060100F04FFA010047
S315000011A008BF08F10108DCD005E0DFF8D803C16804
S315000011B08E80012002E001F037FD00202FE30000C1
S315000011C05EB3020040E70020A8AD020084AD020035
S315000011D0411CADF8001001220DF1060170470122F5
S315000011E00DF1020101F0CBBC2DE9F34F85B00021D2
S315000011F08DF803104FF00C09DFF8AC58BDF8181045
S31500001200DFF8A868DFF89C385B5C298835684C08ED
S3150000121091FBF9F9A1444D45039302D3DB180393DF
S3150000122009E0182691FBF6F1641AA54203D303EBF5
S31500001230530189B203910025D24CADF806008DF812
S31500001240042000E06D1C774801888D4280F2CF8033
S31500001250002687E0012202A91FFA88F0FFF78AFA22
S31500001260A3680498DFF834E8B3F804C0BEF8003089
S315000012700068DC44ACEB0303012202A900F0DEF9AE
S31500001280010008F1010858D10AF1010A5FFA8AFB48
S31500001290BBEB176FDEDB38E01A468DF80220BDF88F
S315000012A006309A18ADF8062001235B4A8DF8033004
S315000012B0505DC30143EA0523BAF1010FADF80030D2
S315000012C040F08B80BDF8002042F07F02ADF8002090
S315000012D08A88D21C8A800028DFF8BC17049100F0A7
S315000012E083804146E8B200F0F4FAA368DFF8ACE781
S315000012F002903A0E04989F88BEF800300068FB1AE8
S3150000130002A900F09BF9010017D1BDF80000A368FF
S31500001310DFF884774FF6FF71091AADF8081001223D
S31500001320DFF878179B88B1F8008038689B1EA3EB1E
S31500001330080302A900F082F9010066D1A3689B8820
S315000013403868DB1EA3EB080300F076F901005CD1D8
S31500001350A0688188A9F8001082889DF802105118AB
S315000013608180761CF1B2DFF8480710F805A05145D8
S31500001370BFF468AFE8B2FFF777FA8146DFF83407C3
S31500001380475DBDF81800B9F800807F1C07EBD777DA
S31500001390FF05854202BF9DF80410F0B28842E0D0F6
S315000013A060680188884524BF40884045D9D3BDF888
S315000013B006100398814226DADFF8E826A168535D15
S315000013C0B1F804C048889C440CF103029042BFF671
S315000013D063AF01206070452017E0BDF80030F2B21F
S315000013E01343ADF8003073E74FF0000A4EE79DF85F
S315000013F0030040B96068022181716068A168E268F3
S315000014006160A260E060012002E001F00DFC0020B6
S3150000141007B0BDE8F08F000060AD020074EE00205A
S3150000142095CC020068CC0200ECE800202DE9FE4FC6
S315000014305FEA0009534DDFF8607614BFE868A868D4
S3150000144001220188DFF8700600880291C0F1FF01D1
S3150000145001F0FF0141EA0021ADF80210DFF85C0659
S31500001460029990F800A0DFF834060688386801EB88
S315000014700A04631D9B1B0DF1020100F0DFF8010059
S3150000148059D140F6227040EA0A30ADF80200E31C5A
S3150000149038689B1B01220DF1020100F0CFF8010014
S315000014A049D13868A31C9B1B0122A91C00EB4300F1
S315000014B001F065FB01003ED1601CA0EB06085FEA67
S315000014C009004FF6FE7B07D0FF21ADF8021000F0B1
S315000014D05DF801002FD109E068680088012269469D
S315000014E0FFF748F9BDF80000012802D1ADF800B0B9
S315000014F002E0411EADF800104FF6FF72BDF8000085
S31500001500121AADF80420A41B3868012201A900EBC9
S31500001510440001F034FB01000DD1029C5046A0F1BD
S31500001520010A80B288B1386814FA8AF39B1B00F06E
S3150000153083F80100F2D001F077FB0020BDE8FE8FB2
S31500001540A968032088710120F8E7B9F1000FF7D0E8
S31500001550E968032088716868FFF7B3F9A868FFF7A0
S31500001560B0F9EA686868A968AA60A8606960E86076
S315000015706A600020ADF80200E96000F007F801009B
S31500001580D9D1E0E714F400205AB3020001223868EA
S315000015900DF1020100EB480001F0F1BAFEB5044678
S315000015A0DFF80005455CA088134662882E18F61CF5
S315000015B0B24205DADFF8082501215170452033E0F3
S315000015C0C01CDFF8F024A08080B2525C1946FFF7F9
S315000015D0F2F860B3DFF8C404DFF8BC740688A388A9
S315000015E03868DB1E9B1B012202A900F027F80100C8
S315000015F01AD1BDF808004FF6FF71091AADF80010B0
S315000016000122A38838689B1E9E1B694600EB460094
S3150000161001F0B5FA010007D10898A1880180A088D9
S315000016204019A0800120FEBD01F0FEFA0020FEBD9B
S315000016309CED00201CAD02000122694600EB430030
S3150000164001F09DBA2DE9F84F84B0054689469046CB
S315000016501C4601F073FCDFF8602413888DF80450F3
S315000016600127ADF80830B8F17F0F9DF80410BDF8DA
S315000016700800039508BF4FF000088DF80540814229
S315000016803FBFDFF82C14039A8B5C984507D2DFF82E
S3150000169024148B5C9C4202D1B9F1000F03D140F6B1
S315000016A0D901FFF755FC9DF804004146FFF7DCF829
S315000016B001250646DFF80C048179B6F800A0022958
S315000016C01FBF817B0229807D022802D1432001F0C1
S315000016D0ABFA039ADFF8BC13885C002833D09DF878
S315000016E00400514600F0F5F8D9F80010814257D0B1
S315000016F0AAF1030000F09EF8DFF8C453DDF80CC031
S315000017006C68DFF8A033628813F80C10A088D21E2C
S31500001710521A824207DB30B1A86801888A45A4BF05
S315000017204088504572DBE8688179AC68022938D177
S31500001730442001F079FAE8688179012931D0452001
S3150000174001F072FA53E09DF805404FF0000B21E0DE
S315000017500BEBDB700AEB600000F05DF909EB0B00A8
S3150000176019F80B10407801EB0020611E8B4507D15C
S31500001770BDF8001001F0FF0100F0FF00ADF8001009
S3150000178080B2BDF8001088420BF1020018BF002598
S315000017905FFA80FBA345DBDB002D8DF80540A7D063
S315000017A03DE0A8688179012915D10020FFF7E5FB06
S315000017B0002834D00020FFF739FE00282FD0BF487C
S315000017C0BDF8085003789DF8041003EB4500C01DD2
S315000017D0424680B205E003290FD19DF80410424627
S315000017E00020FFF701FD10B100F01CF8B8B938462B
S315000017F0471EC0B2002810D111E002290CBF40F6E6
S31500001800C81140F6CA11FFF7A3FB08E000F00AF87A
S3150000181028B93846471EC0B200287FF444AF05B049
S31500001820BDE8F08F0096BDF806309DF804104A46D4
S315000018302046B3E601220DF1060180B2FEF79ABFFB
S31500001840F8B505469E489D4F43681C883B78E018CE
S3150000185000F038F8BDF802000026C0F30310012896
S3150000186011D1192400F029F8BDF800006D1C30B123
S315000018704FF47F41401A17D0FF3813D016E0B61C3C
S31500001880641EEFD10EE0192400F017F8BDF8000031
S315000018906D1C20B14FF6FF71884203D00BE0761C19
S315000018A0641EF1D170B2F2BD761CFBE7BDF80000F4
S315000018B0C0B200B9761CF643F4E701226946A8B225
S315000018C0FEF758BFC01C01220DF1020180B2FEF7DF
S315000018D051BF38B50C460021764B009169461D5C18
S315000018E02A4620466D1CFEF792FF05EBD57504EBE4
S315000018F06504A0B2FFF7A4FF0028009948BFC043C3
S3150000190041FA80F032BD000062B3020060CC0200F2
S3150000191062CC020066CC020064CC0200F8B5664ACE
S31500001920138804466848254630F815609C4202D262
S315000019305849485D18B940F68321FFF709FB5D4910
S315000019404D5D681C00EBD07006EB6007B8B2FFF780
S3150000195077FF0346192B0FD20020DFF840C1DFF8CE
S3150000196038E1ADF8000013FA87F7BCF80030DEF86E
S315000019700000FFF70BF960B131462046FFF7A9FFDB
S3150000198000902B46401C00907F2269462046FFF7B8
S3150000199059FEF1BD6ACC02007CB50546474806787B
S315000019A0344621464C1EC9B22888022925DB50FA46
S315000019B084F000F030F8BDF800000028F1D043486C
S315000019C029880288E6B27243521890B2FEF7E7FE03
S315000019D00020ADF8000001222D882F4800687519F7
S315000019E02E4E3388ED1A694600EB450001F0C7F824
S315000019F001000ED001F018F90BE0FEF7D0FE012031
S31500001A00A8712D4A29881088891901EB4001891D82
S31500001A10A980E0B276BD0122694680B2FEF7AABE71
S31500001A2028488179022908D0817B022908BF08301D
S31500001A3003D0817D022901D11030ADE70020704727
S31500001A407CB504461D48067800250CE0208850FA2F
S31500001A5086F0FFF7E0FFBDF8000000281EBF4FF636
S31500001A60FF7188426D1C3046461EC0B20028EDD17B
S31500001A70E8B276BD13488179022908D0817B022914
S31500001A8008BF083003D0817D022901D11030D7E785
S31500001A900020704760AD020040E700205EB3020000
S31500001AA00CB002008CAB020056B3020088AB0200F9
S31500001AB0A8AD020084AD020068CC020095CC0200FD
S31500001AC014F40020ECE8002074EE00205AB3020063
S31500001AD073696D2D656570726F6D322D696E7465F3
S31500001AE0726E616C2E63000062F30F2262F31F4276
S31500001AF0401810F0030308D0C91A1FD3DB0748BFEC
S31500001B0000F8012D28BF20F8022D130030B414462A
S31500001B101546103928BF20E93C00FAD8490728BFE6
S31500001B2020E90C0048BF40F8042D890028BF20F8A2
S31500001B30022D48BF00F8012D30BC7047C91818BFE8
S31500001B4000F8012DCB0728BF00F8012D7047FEE7EE
S31500001B5080B50121764801F0DFFA7648012101605F
S31500001B60002001F09CFE012304220221052001F041
S31500001B70DAFE0120FEF78AFD00F00EF8FEF7B7FD4B
S31500001B8001F0C9FF012340226B496C4801F08EFF2A
S31500001B906B490860C00F02BD70B501220121042007
S31500001BA001F01AFD6748684C0168684D684E41F0BF
S31500001BB0010101600021C26842F08072C260022207
S31500001BC06448206029603160634864490A6001F016
S31500001BD0D3FA6349634A644B0818B0FBF2F0401E1F
S31500001BE01860002129644FF48072604860492065BE
S31500001BF03160604802602B6843F480732B6070BDCF
S31500001C005048006800B10120C0B27047D12202706E
S31500001C104170090A817058490A78C2700420521C22
S31500001C200A7070472DE9F14FDFF850A1DFF85091A7
S31500001C300446DAF8000082B0065D01F077FF761DF3
S31500001C40F6B2002700904FF6FF7842E0B91E9DF8E5
S31500001C500800C9B200F02BFB0546414601F0C0FF63
S31500001C60804627E0B54239DA01F060FF0099401A54
S31500001C7080B240F2F512904230DAF8B210B95B2524
S31500001C80012718E0012804D1DAF80000055D0227D3
S31500001C9011E0F01E854207F1010B08BF454609D049
S31500001CA0B11E8D4208BF4FEA182503D0701E85422B
S31500001CB0CCD15D255F4626480168CA0709D5234869
S31500001CC00168CA0505D5D9F800000028FBD089F8B7
S31500001CD000501C4908680028FDB2C3D1B5420CBFAC
S31500001CE000200120BDE8FE8F10B524490A68145C67
S31500001CF0042C01DA012010BDBDE8104092E710B5B2
S31500001D000F4B186890B04022694601F0B8FE58B1F2
S31500001D10C1B2684600F0ACF904462146122000F034
S31500001D208BFE204600F021F910B010BD0000000027
S31500001D3000350A001088144294F30020BCB102005A
S31500001D40E8E80020F0ED00E0B00F00E0000E00E053
S31500001D50800E00E055CEACC506000E00F00004E093
S31500001D60FCAC0600F8590D00100004E0FF0300402B
S31500001D700D000100040304E0B9FD002048E800203E
S31500001D80200000E02DE9F04104460125012C18BF92
S31500001D90202C8AB00F4690461E4619D16846344913
S31500001DA0282201F03FFF012C18BF202C08D0022C5E
S31500001DB018BF212C04D0032C1CBF222C232C14D199
S31500001DC0012E0197ADF80C8004D14FF4805005E048
S31500001DD001200BE0022E03D14FF44050ADF80A006B
S31500001DE06946204602F0D4F90546E8B20AB0BDE8D5
S31500001DF0F08180B502F06FFAC0B202BD80B502F084
S31500001E00CDFAC0B202BD2DE9F84380460F4614460E
S31500001E101D46184E02E03068C75D203CE0B220281F
S31500001E20F9DAE8B2B0B1C4F120005FFA85F9C0B2C0
S31500001E30814588BF8146384600F022F8E4B2011990
S31500001E404A464046FFF7DAFF3068C75DA5EB09054D
S31500001E500024E6E7BDE8F2830CB480B50A460146E5
S31500001E6002AB054800F0EBFB02BC00205DF80CFB62
S31500001E70B0AB020050E80020494400007047FEE77E
S31500001E80DFF800170A6802EB40107047DFF8F82603
S31500001E901368195470472DE9F0415FEA000831D004
S31500001EA002F039FBDFF8E426DFF8E4161678DFF8EF
S31500001EB0E456FF23FE2E19D10027DFF8DC66DFF893
S31500001EC0DCC6177034782C7007E07C1C0EF80740CF
S31500001ED0DCF800E00EF80730E7B23478D1F800E01D
S31500001EE0A742F2DB0EEB040606F8013C2E784645C7
S31500001EF00AD202F016FB0520FEF7FEFB00211B208E
S31500001F0002F02FFCFF2020E0A6EB08062E701578C5
S31500001F10DFF88C661778D6F800E001240EF8074043
S31500001F20A8F10108D1F800C01CF8074014705FFA48
S31500001F3088F4002CEED1DFF850260CF8073000218B
S31500001F401368595502F0EDFA2846BDE8F08110B540
S31500001F50044602F0E0FADFF8481609680A5D521CEA
S31500001F600A55BDE8104002F0DCBAF8B5044600F0A8
S31500001F7031F8054602F0CFFADFF81036DFF81476AE
S31500001F80DFF80CC6DFF818E601E02C46FF25FF2C2B
S31500001F901CD022460FE0DCF80010895C0026A6540F
S31500001FA03C78641C3C70FF29DCF800601C78B45453
S31500001FB01A70EAD00A46DEF800108C5C661E8E5453
S31500001FC0DEF80040A15C11F07F0FE4D0BDE8F240DE
S31500001FD002F0A7BA10B5DFF8C8150A68145C210626
S31500001FE005D5DFF8A02513684001185C10BDFF2059
S31500001FF010BDB0B504460D46FFF7ECFFFF2818BF2D
S31500002000FFF7B3FF2846FF28DFF8947504D1386838
S31500002010015D01F07F0105E0FFF799FF3868015D7A
S3150000202041F0800101556401DFF8580501680D553E
S31500002030B0BD0EB430B504460120FFF72CFFDFF823
S3150000204044150A68FF2802EB40110ED0DFF8382548
S3150000205013681C5403AA002304E052F8045B01F839
S31500002060015B5B1CDDB2A542F7D330BC5DF810FB0B
S315000020707CB504460D4605F11F000004400DC0B2B4
S31500002080FFF709FFFF2806460DD0DFF8FC040168BC
S315000020908D553CB1012000902B460022314620464A
S315000020A000F002F8304676BDF3B5054681B0DFF89C
S315000020B0D804016817469DF808201E468B5CF41963
S315000020C0A34203DA4FF4B77100F0E1F830000CD008
S315000020D0089C394602A800F0DEF802469DF8081072
S315000020E000943346284600F001F8F7BD2DE9F04785
S315000020F0089DDFF89C64DFF88CA480468946144668
S315000021001F460DE02900224612BF414601464046C1
S31500002110FEF75CFA30683F1BA04410F809900024D3
S31500002120F8B270B1DAF80000214600EB49135818EE
S3150000213051FA87F12029B2BFFCB2C4F12004E4B2FF
S31500002140E0E7BDE8F0872DE9FC410746DFF83804F3
S3150000215088460168CC5D15461E462919CBB2A342B6
S3150000216006DB28000DD0C9B2384600F05CF808B18D
S31500002170182007E000962B46224639464046FFF7D0
S3150000218093FF0020BDE8F6810123DCE70A4600E064
S31500002190521C1378002BFBD1521A0123D2B2D2E77C
S315000021A02DE9F041804601F11F0402F11F00E4040D
S315000021B0C004240E000E04B9012400B90120844293
S315000021C02BD0DFF8CC5319DA001BC0B2FFF763FE41
S315000021D00746FF2808BF002020D0641E00F020F824
S315000021E02E68305CFF2804D000F01AF8305CFFF748
S315000021F0BCFE00F015F829680F540EE08A420CD296
S31500002200411EC9B2404600F01FF804462868005D2A
S31500002210FFF7ABFE2968FF2008550120BDE8F081D5
S31500002220E1B2404610E070B5DFF85C6333680546FE
S315000022300C46595D2246FFF7B3FF18B13068445586
S31500002240002070BD182070BD04E0DFF84423136839
S31500002250185C491ECAB2002AF7D1704731B50C4640
S31500002260DFF824130A68155CAC4203D340F205215B
S3150000227000F00DF82146684600F00DF8DFF804136B
S315000022809DF800300A6802EB4311084432BD0FF294
S31500002290243000F023BD38B504460D46C904207825
S315000022A0090EFFF7D1FF207005F01F0032BD80B583
S315000022B0FFF7D4FF007802BD10B51446FFF7CEFF36
S315000022C0047010BDF8B5DFF8C05204462868065DF4
S315000022D0FF2C03D140F22521FFF7D9FF06F11F019C
S315000022E0C904080EFFF7D7FDFF28074609D028685E
S315000022F0C6550096002322460021384600F0C2F853
S315000023003846F2BDF8B505460E4617460120FFF7DA
S31500002310C2FDFF28044610D0DFF868023246066880
S3150000232006EB44163B462021701900F01FF82D18C5
S31500002330DFF8540201680D552046F2BD1CB504AC09
S31500002340009400F001F816BD10B514461A46029B1B
S315000023502044091BBDE81040C9B207E00CB480B5A3
S3150000236002AAFFF7CFFF02BC5DF80CFB2DE9F04790
S3150000237081464F460024884615469A460CE0F6B23A
S315000023803419444542DA32463846FEF71FF9BF197A
S31500002390641E641C6D1CE4B2444537DA2878A8B381
S315000023A0312818BF32280ED15AF8041B07F8011B32
S315000023B03228EED1641CE4B2A045A4BF091207F886
S315000023C0011BE6DA22E034280ED1211D5AF8040B4F
S315000023D088451BDB3870020A010C000E7A70B97052
S315000023E0F8703F1DE41CD4E7A0F133035AF8041B30
S315000023F0072B38BFA0F13006C1D3A0F14103072B4C
S3150000240034BFA0F137065AF8046BB8E7A7EB090109
S31500002410C8B2BDE8F0875D49FE200870704770B508
S3150000242000F02BF800F003F8301880B270BD0602F9
S31500002430294620463BE7E0B58DF804200123120A21
S315000024408DF8052000930A460146022301A8FFF7EE
S315000024502BFE07BDF8B500F010F8FFF7E8FF861968
S31500002460E91CC9B2FFF7E5FF0702AD1CE9B2FFF7A9
S31500002470E0FFC01906EB0040F2BD0D46691C04469C
S31500002480C9B214E7FDB5089C20000D461E461BD1B7
S31500002490F7BD3C4B9DF804001B6803EB4010C2F1EE
S315000024A02002D2B2BA42B8BF174681199DF8000081
S315000024B003EB40133A465819FEF788F8E41B7D19DA
S315000024C0BE19A0B200B9F7BDA9B26846FFF7E3FE90
S315000024D00546B1B201A8FFF7DEFE0646B542A7B231
S315000024E0B4BF32462A46D4E770B504460D4602F01C
S315000024F012F82A4A23781268FF2B08BF555503D0D5
S3150000250013441E7856551D702570BDE8704002F0C4
S3150000251008B838B5044601F0FEFF2178FF22FF29EE
S3150000252008BFFF2507D01D4B1B685D5C8D420EBFA3
S3150000253022705A5D5A5401F0F4FF284632BDF8B5B0
S3150000254004460D4601F0E7FF21780026FF2913D047
S31500002550124B1B680A46012603E08F420CD03A460E
S31500002560761C9F5CAF42F8D1DF5D9F54A94203D130
S315000025708A4208BFFF22227001F0D3FFF0B2F2BDFB
S315000025800000000044E8002048E80020CAEB0020D4
S3150000259050E80020ADEB0020ACEB002054E8002012
S315000025A04CE800200078FF2801D101207047002068
S315000025B0704700007061636B65742D6275666665B1
S315000025C0722E630070B513461044DCB264B101F09C
S315000025D00F060909451E0A2EACBF37243024A4195C
S315000025E028462C705B1EF0E7104470BDF0B5002342
S315000025F041B1002806D52D2313700123B0F1004FF9
S3150000260018BF4042002100248A4D002601E0C01B6D
S31500002610761C55F82470B842F9D2F7B20FB90F00FC
S3150000262004D0D9B2303656545B1C0121641C092CE7
S31500002630EBDBD9B2303050545B1CD8B2F0BD2DE97B
S31500002640F84F824696B04FF0000914A88846174600
S315000026501D4604ACCB46019012E04FF0010B074635
S3150000266000E004460198844209D39DF80020A41A8C
S3150000267000F0D4F8002851D159FA84F904AC7F1C33
S3150000268004A88DF800009DF800003978201A00296A
S315000026900FD0252905D05FEA0B0208BF04F8011BFD
S315000026A0E0D05FEA0B0114BF4FF0000B7F1C3978B6
S315000026B00A0000F0A680B1F1250216D00B3A092ACD
S315000026C040F28080283A75D00A3A12D0521E3CD089
S315000026D0521E57D0083A55D0121F39D0D21E37D0C5
S315000026E0921E4FD0D21E65D0BCE7252004F8010B00
S315000026F0B8E729686A6803912046083502920024E3
S31500002700029A9442ADD20399095D0222FFF75AFF5D
S315000027100199884206D300F085F800287AD159FA43
S3150000272086F904A80299491E8C423CBF202200F873
S31500002730012B0199884206D300F074F8002869D16C
S3150000274059FA86F904A8641CDAE755F8040BCDE7B4
S3150000275055F8046B044600F061F800285AD159FA7E
S3150000276084F9314604AC064600E0761CF0B2085CFB
S315000027700028FAD1F2B24046D04700284AD159FA89
S3150000278086F96FE76C290AD17A7855F8040B752A11
S315000027900EBF00210121642A07D17F1C05E075299F
S315000027A055F8040B0CBF002101212246FFF71EFF3E
S315000027B0241857E755F8041B0222C9B22046FFF732
S315000027C001FF4EE77878782818BF58284FF0010B9C
S315000027D0EFD17F1C781E32294FF0000B04D155F83B
S315000027E0040B81B20422E9E734297FF436AF55F8A9
S315000027F0046B0422310C2046FFF7E4FE0422B1B23A
S31500002800DDE70546EAB200F00AF818B9A9445FFA0E
S3150000281089F000E0002017B0BDE8F08FE2B204A90D
S31500002820404650479DF80020861AF2B204A9404659
S315000028305047000098B1020070B5FFF760FAA64C49
S315000028402046FFF7AFFED8B92046FFF762FEFF2805
S31500002850044615D0A1480168085D851EE9B22046E8
S31500002860FFF7DDFD0646E9B22046FFF7DCFC214610
S31500002870304600F0E1F82046BDE87040FFF775BB32
S3150000288070BD03460A4693A10420FFE70CB480B549
S3150000289002AA00F029F801BC5DF80CFB80B586B0F1
S315000028A002F0BAF92022049200218D4A0092652393
S315000028B00591039302910191024600238CA1012008
S315000028C0FFF7E4FF874881790288437903910292F2
S315000028D001930179C37882780091422087A1FFF79E
S315000028E0D5FF07B000BD00002DE9F04F85B00546C5
S315000028F00F469046FDF70FFF0024F0B9FFF780F969
S31500002900D8B10120FFF7C7FAFF28824615D000216B
S31500002910FFF7BCFA294601A8FFF778F9054687BBF9
S3150000292000F083F830B95046FFF7DEF910B1042005
S31500002930FDF7E2FE5046FFF718FB05B0BDE8F08F45
S315000029408DF8041001251BE0644858F8046B0068F4
S3150000295010F80A90F2B2FF2A12D0F1B210F801B0C4
S315000029600BEB0901C9B25046FFF75DFC0028E1D127
S31500002970CDF800B00023F2B249465046FFF782FD7B
S315000029807F1C38780028CBD0A0F130010A2904D268
S315000029900A2101FB0404303CF2E700F046F8002867
S315000029A0C8D139780025422901A80ED044291AD069
S315000029B0462925D057290DD06229C5D066292AD0A7
S315000029C06C2925D0702926D0BAE758F8040B8DF863
S315000029D00400B7E758F8041B8DF804100225090413
S315000029E0090E4170CCE758F8041B8DF804100B0A49
S315000029F00A0C090E437082708DF807100425BFE794
S31500002A0058F8041B5046FFF7C1FB0028B8D091E7E1
S31500002A1058F8044BB4E758F8041BE2B25046FFF7E7
S31500002A20B3FB002808BF0024F0E72A4601A9504658
S31500002A30FFF7AABB000000002DE9F043122885B07D
S31500002A4080460D4609D03A281ED04FF6FE718842C0
S31500002A5004BF284600F0E1F834E02048224F016820
S31500002A604E5D2846FF282DD0212EB4BF34462024A3
S31500002A70FFF706FA01462246002001F04BFB3868B4
S31500002A80455D203EF6B2ECE702F05FF9814603F0C1
S31500002A9078F8064602F0FBFB074602F0F4FB044614
S31500002AA003F06BF811490B6816A1CDF81090024699
S31500002AB00B480390588802900196009723463B20C6
S31500002AC0FFF7E4FE2946404605B0BDE8F043FDF7B2
S31500002AD043BE000057460000CFEB002048E8002028
S31500002AE06CF7002064B3020050E8002064F7002071
S31500002AF042423870424242425742420042424242B9
S31500002B0057420000574242575738704200000000B3
S31500002B10DFF800F0EDE60020DFF800F063E60020C5
S31500002B20DFF800F0E9E6002038B504460D4603F06C
S31500002B3091FB012C02D1FFF7EBFF02E02846FFF7DD
S31500002B40EBFF18B103F092FB012032BD03F08EFBC0
S31500002B50002032BD80B58308800705D54FF6FF7289
S31500002B6042EA0142009204E041F07F4141F47F01D4
S31500002B700091042269469800FFF7D2FF02BDF8B51E
S31500002B8006460D4605F0010106F001000143144614
S31500002B9001D00120F2BD9CB132462B46611C4FF696
S31500002BA0FF7C01E0921C9B1C491E0BD017886745D1
S31500002BB01CBF18880028F5D04B20F2BD03F056FB49
S31500002BC00020F2BD03F046FB012C01D0B00707D56B
S31500002BD035F8021B3046FFF7BDFFC0B9B61C641EB0
S31500002BE0022C0CD367087F007A0029463046FFF78F
S31500002BF097FF60B906EB470605EB4705E41B002C7B
S31500002C00DCD029883046FFF7A5FF0028D6D003F090
S31500002C102DFBD1E770470020704770470198704739
S31500002C207047702003F04ABB70B5044643381E4D0A
S31500002C3008D0401E012809D9801E01280ED9C01FC0
S31500002C4031D029E0BDE87040FEF7EABEFEF712FF7C
S31500002C5020B1FEF7E5FE0028FBD170BD134E30789B
S31500002C6008BB01213170FDF75FFC442C11D00CD359
S31500002C70462C05D00DD3472C07D140F6010001E0C4
S31500002C8040F6020003F01AFE03E0F621284600F0A3
S31500002C9025F80020307070BD2846BDE870404FF41E
S31500002CA0847100F01BB870BD44B20200BDFD002067
S31500002CB070470020704700207047012070470120B0
S31500002CC0704700207047704702F094B900207047A3
S31500002CD0012070477047FEE742DE704738B504466C
S31500002CE00D4602F0C9FC00F029F903F017FE29464B
S31500002CF02046FFF7C6FD2B4622466D490120FFF709
S31500002D00ABF829462046BDE83440E5E769482DE999
S31500002D10F843694E0168B1654FF42068026A674955
S31500002D20F2650B68336649687166426AB266816A03
S31500002D30F166C26A3267016B7167806B96F838106C
S31500002D40B06748074CBF346CF46B03F0D3FD002228
S31500002D5032658442DFF868E1014624BFAEF1200700
S31500002D60A742A146716506F19002564BDFF858C19D
S31500002D7018D3A0697064E469B464B56DC5F3080539
S31500002D80062D13D1604511D398420FD200884DF617
S31500002D904264A0420AD17068B4685060946040F200
S31500002DA0017803E000247464B46481464748814294
S31500002DB038BF0146084670456AD20C68B4F1CD3F6B
S31500002DC008BF091DF6D063E0062C09D1C4B2002C59
S31500002DD00CBF0520401E06F17C04C5B244F8251040
S31500002DE0F14520D25EF8041D6145F9D39942F7D228
S31500002DF0CC07F5D5002406F17C0555F824708F42E2
S31500002E00E2D0641C062CF8D3DEE7F16F002306F14E
S31500002E107C0506EB8304D4F8804045F823405B1C10
S31500002E20042BF6D911600146481EC9B20029ECD11F
S31500002E30B06DC0F30800032810D0042811D005286F
S31500002E4012D0062813D00C2817D0122818D12048E3
S31500002E500268910719D540F2025816E040F601289B
S31500002E6013E040F6022810E040F603280DE0B8F51E
S31500002E70206F0AD140F6042807E040F6052804E052
S31500002E8018B13F2838BF40F607284046BDE8F28310
S31500002E901049081AF0640021002006F17C04C5B22E
S31500002EA0401CC7B244F82510062FF8D3002097E738
S31500002EB01CAC020004ED00E00000002000E300E08E
S31500002EC008E500203AAB0200280500009C0000201F
S31500002ED01C20054008E5002003F024BD7FB5012134
S31500002EE0224800F019F901220121012000F074FBAB
S31500002EF00421072003F018FD1D4A92E838006946B0
S31500002F00032281E838000D218DF8081001268DF87E
S31500002F1009208DF800608DF807606946154C20463B
S31500002F2003F070FD1449042008600222134962620E
S31500002F300860A26A42F00202A2627FBD0D4803F059
S31500002F4055BDA52806D10B480068C10702D50C4A15
S31500002F500020106070470748006800F001007047C5
S31500002F60084908680028FCD17047000000250A00BF
S31500002F70B4AC02000020054080E200E000E100E081
S31500002F800000A44208200540890001EB401101F130
S31500002F9084410A607047890001EB401101F18441C8
S31500002FA00868704780B51221DFF88C05FFF7F3FF3C
S31500002FB00028F8D101BD80B5FFF7F4FFDFF87805EA
S31500002FC00068000C00F0030002BD0122DFF84C157A
S31500002FD010B5884232BF0022DFF84415884201D27C
S31500002FE0144600E002241021DFF83805FFF7CCFF75
S31500002FF0DFF84805016821F0807141EA046101604B
S3150000300010BDF0B5DFF82025DFF83445136800233E
S3150000301004EBC305CFB22E79BE4203D154F8335028
S31500003020854202D25B1C052BF2D3052B0EBF032073
S3150000303004EBC3004079116821F0407141EA006158
S315000030401160F0BD38B500F013F841F67130286014
S3150000305003F02BFD002105E038B500F009F841F634
S3150000306071322A60FFF7CDFF0CB10020286031BD18
S31500003070DFF8D4542C6804B101247047C01C0F2813
S3150000308001D2000770474FF07040704738B50446CC
S31500003090002500F017F9DFF89424DFF89414944221
S315000030A008D0DFF8A024944206D0DFF888249442A2
S315000030B004D006E0086802E0486800E0886800F08E
S315000030C00700401E03281BD8DFE800F002050C08A5
S315000030D003F020FD04E003F023FD01E003F01DFDF5
S315000030E005460DE003F0D4FCDFF850140968090E1C
S315000030F001F001010122491C02FA01F1B0FBF1F5D0
S31500003100284632BDDFF8C4144A68D30702D40A68D9
S315000031100242FCD17047000070B50C460246110A07
S3150000312001F00F010020491E0929DFF8B45513D814
S31500003130DFE801F005131212071518121B1FDFF83E
S31500003140E453C2F3043608B1FFF7DCFF22463146EA
S315000031502846BDE8704017E770BD1035F1E73035F9
S315000031600120EEE738351020EBE740354FF480308C
S31500003170E7E7DFF8A056E4E770B50346DFF850044A
S31500003180DFF8A8130668DFF8BC03DFF8A823DFF82A
S31500003190AC53012413F4781377D0B3F5003F2ED047
S315000031A0B3F5802F27D0B3F5202F6ED0B3F5402F7F
S315000031B02BD0B3F5602F60D0B3F5801F2DD0B3F5BB
S315000031C0A01F2DD0B3F5B01F32D0B3F5D01F3FD01E
S315000031D0B3F5F01F22D0B3F5001F4BD0B3F5101F87
S315000031E047D0B3F5381F2AD0B3F5401F36D0B3F514
S315000031F0481F4DD063E003F05AFCE96802E003F093
S3150000320056FCA968C1F3082104E003F050FC696983
S31500003210C1F30421491CB0FBF1F651E0084629E050
S315000032201046FFF733FF0646286B00F003000DE05B
S315000032300846FFF72BFF296A01F00F0115E0084643
S31500003240FFF724FF0646286AC0F30110C64037E0A0
S31500003250FFF71CFFA96AC1F3011106E0FFF716FF8D
S31500003260A96A090A01F00301091D8C40B0FBF4F6B6
S3150000327026E01046FFF70AFF1FE0DFF89C0500F086
S3150000328021F807281CD0092819D103F010FC14E0F6
S31500003290DFF8880500F016F804280CD007280FD0B0
S315000032A008280CD103F003FC06462868C0F3042066
S315000032B0401C464304E003F016FC064600E00026E8
S315000032C0304670BD014601F00F010120491E072955
S315000032D0DFF850254FD8DFE801F00415194E2634E3
S315000032E04E3C506A00F00700801E052808D8DFE82B
S315000032F000F03E240B0307050B2070470C20704797
S315000033000520704711690FE002207047516901F0EE
S315000033100701491E03292FD8DFE801F00F02031128
S31500003320F2E706207047916901F00701012904D0F0
S315000033300229E9D0042902D07047032070470A20E9
S315000033407047116811F001010FD0012914D109202D
S315000033507047DFF8D4140A6802F03002102A04D04D
S31500003360202A04D0302A04D0704707207047042052
S315000033707047082070470020704700002DE9F84389
S31500003380074600240326112F0D46B04612D1042D00
S3150000339002D103F0A8FB08E0052D0BD1DFF88C0461
S315000033A0DFF88C140068884204D304001CBF002197
S315000033B003F0DDFC07F00F077F1E072FDFF864948C
S315000033C014D8DFE807F004444A9447769482022D25
S315000033D052480CD0032D2CD0042D2DD0052D30D0E5
S315000033E00A2D03D00B2D2ED00C2D2ED07FE00426D7
S315000033F04FF0000801220121404600F0EDF8FFF7EA
S3150000340021FE0CB1FFF7CEFDC9F8046000F082F88A
S31500003410FFF7DBFD03F03CFB0546FFF7CCFD00F0B4
S3150000342075F8002C63D1BDE8F4430121002003F0B8
S315000034309EBC4FF00108DDE70226B046FFF7C5FD4A
S31500003440D8E70126FAE70526D4E70726D7E709F1E4
S31500003450100404E009F1180401E009F11404012D37
S3150000346008D0022D09D0032D0ED0062D13D00A2D1B
S315000034701DD03CE00020206039E00122012100201F
S3150000348000F0AAF80220F6E701220121012000F04F
S31500003490A3F80120EFE703F0FBFAFFF796FD012200
S315000034A00221DFF83C02FFF76FFD0320E3E704206B
S315000034B0E1E7072D05D0092D04BF0121C9F8001049
S315000034C015E00020C9F8000011E0012D06D0042DFA
S315000034D016D0072D0DD0082D16D008E00020DFF8F5
S315000034E048130A6822F0300242EA00120A60BDE878
S315000034F0F18301220121042000F06EF80120EEE79D
S3150000350000F024F80220EAE70320E8E7014628460F
S31500003510FFF7A2BDDFF808032EE600000148E80128
S315000035200190D00300400E4004000E4002001E0031
S3150000353080400E400500240004300E4000410E403D
S31500003540D8B002000300200040000E4001220121F5
S31500003550022041E070B5044600F03CF8012200214B
S31500003560022000F039F8217CDFF8D0520020022931
S31500003570296808BF0120490840EA4100286008215F
S3150000358022782846FFF700FDA088617A41EAC0212B
S31500003590A960EE68207AFFF771FDE288A17A06F04D
S315000035A07F6646EAC226227A0E4346EAC2160643DA
S315000035B0EE60A17B607B227B090141EA0031E07B62
S315000035C0014341EA0241296170BD000040410E40BD
S315000035D0C0E80020112075E62DE9F84F042883463F
S315000035E092466CD8DFE800F04E493F0344000127BD
S315000035F00220012500260029DFF8B0818F4C60D01B
S31500003600BBF1020F02BF2068C0F3011000284FF083
S3150000361000090CD18A4801682268D0074FF00109D9
S3150000362005D5216821F0300141F010012160E763E2
S31500003630314600F058F80028FAD0BAF1000F3ED013
S3150000364000F050F80028FBD0BBF1020F37D1B9F1DA
S31500003650000F34D02068C1071BD50122202102208B
S3150000366000F0C7F819E00427082003250226C2E760
S315000036701027202005250426BDE7402780200725A2
S315000036800626B8E74FF480774FF400700925082620
S31500003690B1E70021022000F08BF8022000F026F8A6
S315000036A00646012200210220FFF796FF314602203E
S315000036B000F036F8E76300F015F80028FBD0BDE807
S315000036C0F18FE063D8F80000F040C107FAD4BAF1F0
S315000036D0000FF4D0D8F80000E840C107FAD4EEE7AE
S315000036E0B0400E4029464046FFF755BC401E032811
S315000036F0504912D8DFE800F0020C06080869C0F34A
S3150000370008007047086800E0886800F07F0070478E
S315000037104C480068C0F30A0070470020704700005C
S31500003720F8B5401E0D46032805F07F06414C424F72
S315000037303BD8DFE800F00228101CC5F308051A2163
S315000037403846FFF728FC0028F9D12069400A45EAE7
S3150000375040252561F1BD18213846FFF71CFC0028DD
S31500003760F9D12068C00946EAC0162660F1BD1921C4
S315000037703846FFF710FC0028F9D1A068C00946EAD0
S31500003780C016A660F1BD09480168626922F03002E0
S3150000379042F010026261C5F3C310FFF76FFC226AA4
S315000037A029490A40154305432562F1BD90400E4064
S315000037B0224A1068C0F30110002818BF002911D052
S315000037C0202902D030290DD00FE04FF40000D16E31
S315000037D001408142FBD1400209D5D06F800A00F03A
S315000037E0010070474FF44000F1E71848EFE7012069
S315000037F0704702280BD1080004D015484FF48063A7
S3150000380043640160002A1CBF0220FFF7D1BF0120DC
S315000038107047000050410E4006000E00B80032000E
S3150000382000250A0070400E405C410E40D0E80020A2
S31500003830012D310110400E4040410E4024400E4003
S315000038403C300E409C400E4000F8FF0FFF33E13F36
S3150000385064400E40890001EB401101F184410A6089
S31500003860704700F1806300F1C06019600260704724
S3150000387010B500F00DF804F1806404E010B500F016
S3150000388007F804F1C064012303FA01F1216010BDB9
S315000038903022404B5043184400F10C0470473E4917
S315000038A00A68920840EA8200086070472DE9F041F4
S315000038B001F00305164603240F21082E98460CD264
S315000038C0B70000FA07F2B9403448FFF7CAFF05FA15
S315000038D007F204FA07F132480DE0A6F10802970054
S315000038E000FA07F2B9402F48FFF7BBFF05FA07F2C7
S315000038F004FA07F12C482D4FFFF7B3FF079C069DEE
S315000039002B4842463146FFF7A5FF2A463146384640
S31500003910FFF7A0FF224631460120B0403861BDE8DE
S31500003920F041244896E7F8B50546174638000E4696
S315000039301C4607D0002C284602D0FFF79FFF01E067
S31500003940FFF796FF2A4630201249424388180F2275
S31500003950082E05D2B300416800F015F8416006E074
S31500003960A6F108039B00816800F00DF881604FB94D
S31500003970002C3146284602D0BDE8F4407EE7BDE87B
S31500003980F44075E7F1BD9A4021EA020207FA03F115
S315000039901143704700A0004044A4004000A400402A
S315000039A008A4004004A400400CA4004014A4004055
S315000039B010A4004028A4004010B5DFF85C41DFF8F1
S315000039C05C11E1610320206160611022DFF8500183
S315000039D0A06122620021A162E16220660022DFF876
S315000039E04401626210216066A1662267E2662EA12A
S315000039F06267E31D0868DFF8301118600722204669
S31500003A0000F010F92023A37110BD2DE9F843DFF86B
S31500003A100851044628788846914608B9FFF7CCFF36
S31500003A2018204443281900F1600600243769F56818
S31500003A30BD4212D2B4687068E41B4C4588BF4C4640
S31500003A40C1192246404600F0DDF8B168E7198F42F9
S31500003A50A044A9EB040908BF0027ED1B4D4588BF0C
S31500003A604D463DB17068C1192A46404600F0CAF875
S31500003A702C19EF1904B137612046BDE8F283F8B579
S31500003A8004460D46164600F046FD074632462946D0
S31500003A902046FFF7BAFFFFE70446384600F041FD2F
S31500003AA02046F2BD00000000525454002DE9F843B0
S31500003AB000F02AF808B9FFF77FFF00F02CFD7269C5
S31500003AC001460027182306F1640C03FB07FE5CF889
S31500003AD00E0010B17F1C9742F7DB97420BDA7B434F
S31500003AE0F018002204664566C0F868800267C26660
S31500003AF0C0F8749001E04FF0FF37FFE7084600F08A
S31500003B0010FD3846BDE8F283034E044630780D4674
S31500003B109046994670474FE700EC0020D4F300200A
S31500003B20CCB10200E4F30020D8B1020080B500F069
S31500003B300AF880B202BD80B500F005F8FA21B0FBA4
S31500003B40F1F080B202BD80B503F09AFDBDE80440F5
S31500003B5003F0ADBD80B503F0E4FE124800214160DC
S31500003B60001D03F0F9FB20B15FF04C0118A0FFF730
S31500003B70B5F8002002BD0B490120087070477CB5DE
S31500003B8004460025226802B910E000F002F8012080
S31500003B9010E0044E044B357000210091706803F06C
S31500003BA059BC000024F40020773B000003F078FFA6
S31500003BB0002076BD04F010F8307828B970682146E8
S31500003BC003F00DFD852501E025603570284676BD9C
S31500003BD073797374656D2D74696D65722E6300005B
S31500003BE00A0A42EA01225040C0F30311484080EA23
S31500003BF0003041010206C9B2D20E41EA0221484014
S31500003C0080B2704762B38B0708D0521E11F8013B91
S31500003C1000F8013B00F024808B07F6D1830740F0C3
S31500003C20208000BF103A07D330B4B1E83810103AFC
S31500003C30A0E83810F9D230BC530724BFB1E8081009
S31500003C40A0E8081044BF51F8043B40F8043BD207F3
S31500003C5024BF31F8022B20F8022B44BF0B780370E7
S31500003C607047121F17D35B0009D151F8043B20F8A7
S31500003C70023B1B0C121F20F8023BF6D20BE051F858
S31500003C80043B00F8013B1B0A20F8023B1B0C121FE9
S31500003C9000F8013BF3D238BF121D521E24BF11F8A3
S31500003CA0013B00F8013BF8D87047FEE7010008D455
S31500003CB0012200F01F01DFF8C4378A40400943F8AB
S31500003CC02020704701000CD4012200F01F01DFF80C
S31500003CD0B0378A40400943F82020BFF34F8FBFF327
S31500003CE06F8F7047010008D4012200F01F01DFF832
S31500003CF094378A40400943F82020704710B50128C0
S31500003D0018BF2028DFF8804705D04FF4BD71DFF8D3
S31500003D107C07FEF7E3FF204610BD42689388408982
S31500003D20411A8B4201DA01207047002070473EB5E8
S31500003D30012818BF202832D1012818BF20282ED1EB
S31500003D40FFF7DCFF044600F0E6FB0546A06901AB81
S31500003D506A4602A904F0E9FF00992289206889B21F
S31500003D6000F027F8284600F0DCFBA06905F058F8BB
S31500003D70012814D1226821899088228A091A914241
S31500003D800DDBA06990F83110022903D104F0CBFFB6
S31500003D90022802DA00F008F801D100F001F837BD78
S31500003DA0A069002105F012B8A06990F83110012928
S31500003DB0704770B504460E46154600F0ACFBE28827
S31500003DC0B2420CD221888B1A991991FBF5FC05FB9E
S31500003DD01C152580A388F3189A1AA280E680BDE8F0
S31500003DE0704000F09EBBF8B5012818BF20280C468D
S31500003DF0154616D1FFF782FF0646307B10B101212A
S31500003E007173F1BD707B18B13046BDE8F240B1E088
S31500003E100FF2C91700F006F818B100F003F80028F1
S31500003E20FBD1F1BDB0693B462A46214605F0D6B81E
S31500003E3070B505460E46FFF761FF012D18BF202D10
S31500003E40044640D1A069016890F83200E8B904221E
S31500003E508A6400F04EF9A0690068C16C002E07D094
S31500003E6041F00401C1640C20FFF720FF052106E0A4
S31500003E7021F00401C1640C20FFF724FF0021A06992
S31500003E800068BDE8704005F02FB90420486300F0D3
S31500003E9030F9A0690068816B002E07D041F004015B
S31500003EA081630C20FFF702FF052106E021F00401E3
S31500003EB081630C20FFF706FF0021A0690068BDE8BA
S31500003EC0704005F09AB970BD38B50446DFF8C005F4
S31500003ED081422FD0DFF8B055A869A0422AD12A899D
S31500003EE0286899B2FFF765FF28680021C18020463F
S31500003EF004F019FF02281DDC2B68E9896A8A988874
S31500003F004A4392B260B158881B8889188842B8BF64
S31500003F109A4209DB834203D28842A8BF9A4203DB56
S31500003F20284600F008F8E2E72046BDE834400121C3
S31500003F3004F04CBF31BD70B50446DFF85835E08952
S31500003F40668A2568024670432E18A06906F10801A4
S31500003F5005F000F8A06904F0E6FE012801DDFFF790
S31500003F601FFF608AA18A401C90FBF1F201FB120040
S31500003F70608270BDFEB50446207B68BB60680FF2A8
S31500003F805D064188084400F10807A0696B4601AA4E
S31500003F9002A904F0EBFE61688A880098019D121A56
S31500003FA0551B4A88088890420ED26189A0698A1AF0
S31500003FB03346394605F012F870B96268618950884F
S31500003FC06D1A451902F10807A0693346EAB2394667
S31500003FD005F004F800B96073F7BD000070B5DFF8AE
S31500003FE0A854A96981421C4615D168688188A142F6
S31500003FF038BF848800F08FFA69684A886B8912FA9C
S3150000400084F292FBF3F603FB16224A8069688A88DB
S31500004010141B8C80E3E670BD10B51129044609D146
S31500004020A069002104F0DFFE002121732046BDE8CF
S3150000403010409FE7132906D1A069012104F0D3FEA1
S315000040400120207310BD206800F108020088115479
S315000040502068018800F08BF901808188491C8180E5
S31500004060A06904F0DDFE216822898988511A89B287
S3150000407020B9E2898A42A8BF012105DA012808D1C0
S31500004080208A814205DB0021A069BDE8104004F0CA
S315000040909DBE10BD10B52020FFF730FE0446DFF8A8
S315000040A0F803A16991F83120012A09D101690A06AC
S315000040B00AD505F08FF801462046BDE81040ABE76B
S315000040C0C16C21F00401C16410BD10B5DFF8C8430E
S315000040D028B92046BDE81040002105F005B800F0DB
S315000040E008F80C20FFF7E2FDE06C40F00400E06405
S315000040F010BD0C20F6E580B530B9BDE804400521B9
S31500004100DFF8940304F0F0BFFFF7F3FFBDE80240C9
S315000041100C20D7E5F8B50C461546FFF7EFFD064629
S31500004120306881883289E8B2121A914201DB012097
S31500004130F2BD00270EE000F0EEF9316814F8012B0D
S3150000414001F1080309885A547F1C31680A883389AB
S3150000415000F018F9AF42EED30020F2BD10B50128E9
S3150000416018BF202807D1FFF7C9FD0446A06904F04F
S31500004170B2FD800401D4002010BD61688888002843
S31500004180F9D1A06904F0EEFD401E8041C00F10BDBC
S31500004190F8B5012818BF202804460D463AD100F08C
S315000041A0AAF910B9204600F06DF82046FFF7A6FDE3
S315000041B006462046FFF7A2FD012C18BF202C29D168
S315000041C0DFF8D812DFF8D82201608023012C18BF4F
S315000041D0202C42600381438152D1012C16BF202C32
S315000041E0DFF8C0020020012C18BF202CB06111D1CD
S315000041F0DFF8B412DFF8B402E961A861A98CF18195
S31500004200EB8C33828B4207D21C21304605F050F8E6
S315000042100220F2BD0120F2BDB26992F831000128F8
S315000042200CD0308990FBF1F701FB1700002802BF84
S3150000423093FBF1F001FB10310029E5D12946104628
S3150000424004F0AAFBE8B9B069017F007E01230222CF
S31500004250FFF769FB287C012807D101212046FFF7DB
S31500004260E7FDB069FFF79DFD0AE000207082318905
S31500004270F08991FBF0F0B08200F03AF900F038F9DD
S315000042800020F2BD58B5012818BF2028044612D1D7
S3150000429000F031F9E8B9204600F00AF92046FFF7A8
S315000042A02DFD012C18BF202C06460ED1B06904F056
S315000042B044FC10B152BD012052BDB069FFF775FD37
S315000042C003D100212046FFF7B3FD1C21304604F040
S315000042D0EFFF002052BDF8B50128054618BF20287B
S315000042E00F462E460AD1FFF709FD04462846FFF77A
S315000042F01EFD2168888818B92620F2BD0120F2BD6E
S3150000430000F009F90546206841880844027A3A70A7
S315000043102068418800F02BF8418081884A1E012ED2
S3150000432018BF202E828002D1FFF73EFD19D1284604
S3150000433000F0F7F80020F2BD2268E089618A538810
S315000043401288414389B240188342B8BF9142EEDBDE
S315000043509A4203D28342A8BF9142E8DB2046FFF788
S31500004360EAFDA06904F0DFFC0228E5DBDFE722892D
S31500004370491C91FBF2F302FB13117047414650466C
S31500004380FFF731BD521C92FBF3FC03FB1C220A8093
S315000043908A88521C8A8000F0C4B800002DE9F84FC4
S315000043A0824601281CBF202801208846914613D149
S315000043B0FFF7A4FC0446002660680188084400F163
S315000043C0080B002732E04E4505DAA9EB060082B25B
S315000043D05946FFF7D4FF0020BDE8F28F00F09BF8A6
S315000043E061680B8818F8012B19440A7261680A88FB
S315000043F06389521C92FBF3FC03FB1C220A808A8809
S31500004400521C8A8009884D1EAD4100F08AF8ED0FD6
S315000044105DB1FDB26D1CAD1BEAB25946FFF7AFFFA9
S315000044206068AE19F6B200F1080B7F1CF8B2484579
S31500004430C9D200212046FFF770FC0028CED1207B90
S315000044400028F6D02220C7E7F8B501260746012F37
S3150000445018BF202F0C4615460DD1FFF74FFC012F34
S3150000446018BF202F05D180692A46214604F0DAFCC0
S3150000447006463046F2BD0120F2BD000000E100E034
S3150000448080E100E080E200E0A8F00020D8AB020066
S31500004490097000F0C93E00000000014098EF0020BE
S315000044A020F00020C4F00020C4E7002044E70020EC
S315000044B070B50546FFF722FC0646012D346818BF85
S315000044C0202D0CD1B069FFF770FC08D0022104F052
S315000044D076FB0020708200F00BF800F009F800F07F
S315000044E01AF80021A18021806180E180FFF777BC66
S315000044F03046FFF720BD80B5012818BF202806D119
S31500004500FFF7FCFB00281CBF0068002801D1012032
S3150000451002BD002002BDEFF31180602181F31188F6
S31500004520704780F31188704738B57C487C4C00682A
S315000045302060606048220021FCF78FF8794A2168E4
S31500004540107808704FF6FF712068002241800273D0
S3150000455023685A730B222068827314232268D3734C
S315000045604FF6FE7320680382418204F0F7FE21684D
S31500004570087604F0F3FE2168487604F0EFFE216821
S31500004580694B8876694821680278CA766849206846
S315000045900A6840F8282F1D78057166482268016868
S315000045A0116331BD10B500F06EFE5D4C6168897B0C
S315000045B0884203D0084600F075FD50B900F067FE4A
S315000045C0616891F90F10884205D0084600F06EFE2A
S315000045D008B1012010BD6068008A01F0B8FA606871
S315000045E0408A01F0D2FA6068017B01290CBF0120E4
S315000045F0002001F099FA002010BD10B54E4C0020A5
S31500004600207005F07CFB20B92046BDE8104005F07F
S31500004610CFBB6AE080B5002000F015F828B1002075
S3150000462000F005F808B1002002BDFF2002BD3C489D
S315000046300168487B02281CBF1128432801D10120AC
S3150000464070470020704736480168087B01281CBF68
S315000046500228032801D1012070470020704700205E
S3150000466070477020704700207047344908707047C3
S315000046707047002070470120704770470020704740
S3150000468000207047704770470020704780B50020B3
S31500004690FFF7CDFF20B10020FFF7D5FF00B10120C5
S315000046A002BD80B50020FFF7C2FF30B11C4801688B
S315000046B00A7B032A01DA002002BDFF2002BD0000AA
S315000046C010B5040000F005804FF4BA7148A0FEF75B
S315000046D005FB1A49087808B9702010BD0F49104B20
S315000046E00A684820444310195860BDE8104059E74D
S315000046F00B484168088A704709484168488A7047EC
S31500004700074909684A690260C97E01717047044910
S31500004710096802684A610079C876704780E8002017
S3150000472064F70020A9FD0020B5EB0020C0EB0020B7
S3150000473084E8002088E8002054F70020E9EB0020F8
S315000047407047002070470020704705F0A7B87047F3
S31500004750002818BF05F04EBC704705F0B4BE05F042
S31500004760DABF82B08DF80010DDE9002311461A4643
S3150000477002B006F033B833B585B005468DF804208F
S3150000478000F080FA0446284600F08CFA7CB1002836
S31500004790BDF818000FD100F059FB8DF80000FF2876
S315000047A004BF00218DF80010CDF808D016E0A8B19E
S315000047B006A8029012E000F049FB8DF80000FF28E1
S315000047C004BF00218DF800109DF80000BDF81810F8
S315000047D08DF80C0003AAADF80E100292DDE9010176
S315000047E00A460146284605F0F9FF07B030BD00002D
S315000047F0656D6265722D6D756C74692D6E65747765
S315000048006F726B2D737475622E630000490102008E
S3150000481003D4DFF8480481547047DFF8443402F0CB
S315000048200F021A4402F8041C704700F0070010B586
S31500004830C0F10703042B28BF0323C41C072C34BF75
S315000048400020001F012404FA03F35B1E1940814077
S3150000485004FA00F0401E1040084310BD00207047C7
S3150000486070471CB572B602F059F8DFF8F803DFF8A6
S31500004870F8434169216000F0BCF901466FF00B0076
S31500004880FFF7C4FF00F0B5F901466FF00A00FFF725
S31500004890BDFF00F0AEF901466FF00900FFF7B6FF65
S315000048A000F09FF901466FF00800FFF7AFFF00F038
S315000048B098F901466FF00700FFF7A8FF00F091F99D
S315000048C001466FF00600FFF7A1FF00F08AF90146E6
S315000048D06FF00500FFF79AFF0022022100F083F92E
S315000048E001466FF00400FFF791FF00F086F90146DC
S315000048F06FF00300FFF78AFF00F073F901466FF0CF
S315000049000200FFF783FF0022072100F06CF9014641
S315000049106FF00100FFF77AFF00F06FF901464FF0E4
S31500004920FF30FFF773FF00F068F901460020FFF73C
S315000049306DFF0022032100F056F901460120FFF722
S3150000494065FF00F052F901460220FFF75FFF00F015
S315000049504CF901460320FFF759FF00F04EF90146D6
S315000049600420FFF753FF00F048F901460520FFF742
S315000049704DFF00F042F901460620FFF747FF00F021
S315000049803CF901460720FFF741FF00F036F90146E2
S315000049900820FFF73BFF00F030F901460920FFF73A
S315000049A035FF00F02AF901460A20FFF72FFF00F035
S315000049B024F901460B20FFF729FF00F01EF90146F6
S315000049C00C20FFF723FF00F018F901460D20FFF732
S315000049D01DFF00F012F901460E20FFF717FF00F049
S315000049E00CF901460F20FFF711FF00F006F901460A
S315000049F01020FFF70BFF00F000F901461120FFF72A
S31500004A0005FF00F0FAF801461220FFF7FFFE00F05E
S31500004A10F4F801461320FFF7F9FE00F0EEF8014620
S31500004A201420FFF7F3FE00F0E8F801461520FFF723
S31500004A30EDFE00F0E2F801461620FFF7E7FE00F073
S31500004A40DCF801461720FFF7E1FE00F0D6F8014634
S31500004A501820FFF7DBFE00F0D0F801461920FFF71B
S31500004A60D5FE00F0CAF801461A20FFF7CFFE00F087
S31500004A70C4F801461B20FFF7C9FE00F0BEF8014648
S31500004A801C20FFF7C3FE00F0B8F801461D20FFF713
S31500004A90BDFE00F0B2F801461E20FFF7B7FE00F09B
S31500004AA0ACF801461F20FFF7B1FE00F0A6F801465C
S31500004AB02020FFF7ABFE00F0A0F801462120FFF70B
S31500004AC0A5FE00F09AF801462220FFF79FFE00F0AF
S31500004AD08CF801462320FFF799FE00F08EF8014678
S31500004AE02420FFF793FE00F088F801462520FFF703
S31500004AF08DFE00F082F801462620FFF787FE00F0C3
S31500004B007CF801462720FFF781FE00F076F8014683
S31500004B102820FFF77BFE00F070F801462920FFF7FA
S31500004B2075FE00F06AF801462A20FFF76FFE00F0D6
S31500004B3064F801462B20FFF769FE00F05EF8014697
S31500004B402C20FFF763FE00F058F801462D20FFF7F2
S31500004B505DFE00F046F801462E20FFF757FE61681D
S31500004B604FF6FF00014041F0BF6141F40131616041
S31500004B704FF4E021E06840F40070E060E06840F047
S31500004B801000E060E16105F022FF05F053FF374AAF
S31500004B90374892B20021FBF760FD62B63548012125
S31500004BA0416401240268344942F4807202600120A3
S31500004BB0086005F091FF02F0FBFB06F06BF82F4949
S31500004BC06846D1E90023CDE900238DF8034002F0C1
S31500004BD00EF902F069FFFEF7BDFF294806F0C8F896
S31500004BE013BDFF22FF2104201FE60022012104201D
S31500004BF01BE600220021042017E6002204210420DF
S31500004C0013E640F2016001F059BE06F0D3B806F093
S31500004C10D2B8032006F065B910B505F04BFF04467F
S31500004C2005F04CFFC0B208B9012C07D1072C11D8EA
S31500004C30DFE804F004100608080A0C0E002010BD78
S31500004C40092010BD022010BD032010BD0B2010BD91
S31500004C50062010BD44F0800010BD000000E400E016
S31500004C6018ED00E00000000008ED00E0381200003A
S31500004C70A000002000000E4010300E40C0AC020024
S31500004C809CB2020020B5002178A2CBB2D35C83424D
S31500004C9005D0491CCDB2082DF7D3002020BD012038
S31500004CA020BD000020B5002172A2CBB2D35C8342A6
S31500004CB005D0491CCDB2082DF7D3002020BD012018
S31500004CC020BD674801684888704765480168081D27
S31500004CD0704763480168C87E704761490A68D076A4
S31500004CE0704738B55E4C5F4D2168487302285E49AF
S31500004CF015D12068027B042A1CBF084605F058F827
S31500004D002068007B03281EBF0428284605F050F8BB
S31500004D1020684169C80054BF9024BC2405E00020E7
S31500004D2008702870912406F0FDF8204606F002F976
S31500004D3050B92346132249A10320FBF7E4FC204681
S31500004D40BDE83240FFF70BBD31BD45480168487BE1
S31500004D5000F00F007047424801684A7B02F00F02DC
S31500004D60022A01D1012070470020704738B5044659
S31500004D70FFF7F1FF3A4D28B92868417B032901D096
S31500004D80932032BD06F0ADFF20812868C17BA17259
S31500004D902868817BE172204608F029FD00202073F7
S31500004DA004F1140104F1100008F0D8FDE0810020A0
S31500004DB032BD70B52A4D2E680C46FFF7CCFF20B9E0
S31500004DC0707B032801D0932070BDF07B207029688A
S31500004DD0887B00F00AF960702868817B01F01F016A
S31500004DE0A170002070BD10B5002300E05B1CDCB292
S31500004DF08C4205D210F8014B9442F7D0002010BD2A
S31500004E00012010BD082108F01DBF15480168487B28
S31500004E1001281CBF3128332801D10120704700200A
S31500004E20704710B5044600F041FA010002D10C4962
S31500004E300A68D47310BD0A48016891F90F007047DB
S31500004E4007480168887B704701207047044801685D
S31500004E508A7B500918BF01207047000042420000BB
S31500004E6064F7002040FB0020A4F6002000010203A6
S31500004E7004051D200203040508090A0B38B504467B
S31500004E8005F090FF0546DFF8580A837801789942C5
S31500004E9011D000F04AF8641E07D0641E08D0A41E84
S31500004EA006D0A41E032C03D905E00022194600E013
S31500004EB0002208F0E7FE284632BD10B5DFF8603A5A
S31500004EC04C000146986A224608F0E5FEA04201D051
S31500004ED0002010BD012010BD80B500F026F808F0B6
S31500004EE095FF00B10120C0B202BDDFF8342A0146A9
S31500004EF0107B002800D1704780B5906A08F0B4FF97
S31500004F0028B1BDE804404FF4BF7100F0ADBB01BD50
S31500004F1080B500F00AF808F0B7FE00F00300032899
S31500004F2001D1012002BD002002BDDFF8F409806A2C
S31500004F30704780B5B0F5004F08D14FF6FF70DFF827
S31500004F40181A098800F0ACFEBDF80000DFF89019C9
S31500004F504883002002BD2DE9F04F4FEA501C0C4655
S31500004F6000F01F000026DFF8F4892FE00EF1010E95
S31500004F70EF7E5FFA8EF0B84226D2E8695FFA8EF9C4
S31500004F80142717FB09F94844077A07F0070767450E
S31500004F90ECD1477AB942E9DB90F801B090F800907D
S31500004FA007EB0B0AAAEB090A8A45DFDB14B1C91B1A
S31500004FB0494421700AB1017A117003B1186028467C
S31500004FC000E00020BDE8F08F0846761C98F80650F1
S31500004FD0F1B2A942F5D2D8F808105FFA86FE51F868
S31500004FE02E504FF0000E0146C2E7400918BF40F0B0
S31500004FF01800704738B5DFF82849A06A08F006FFA0
S315000050000546E80744BFA06A08F005FFE8031ED579
S31500005010E16ADFF8A45A086A18B940F2492100F09B
S315000050201AFDE06A016A486818B940F24B2100F09F
S3150000503012FDE26A136AA06A5A680021904730B1ED
S315000050402846BDE834404FF41371FDF747BE31BD25
S315000050503EB5684600210022002380E80E00DFF8F6
S315000050608048A07A25788DF80050002818BF0228BD
S3150000507010D1DFF8AC5800F00EF858B1A86A01223A
S31500005080002108F003FE00F006F818B140F2812175
S3150000509000F022FC37BD2179A86A6A4608F059BE9D
S315000050A0000000002DE9F043FF2889B006460AD12A
S315000050B0DFF8A80881680A68D069467A017A06F09E
S315000050C01F0646EA4116F5B205F01F001B2847D217
S315000050D00021019101AB6A46F0B2FFF73CFF5FEA9F
S315000050E000081CBF019800283AD0DFF8F447DFF823
S315000050F030782179F0B2884231D00B3D102D39BF7E
S31500005100DFF81C0A0568DFF81C1A0D68002D1CBFA5
S315000051102878032824D0786C854214D002A8294622
S315000051200622FEF76FFDB86A7D6402A908F0F4FE58
S31500005130B0B9B86A04A908F004FFB4F91810B86A3F
S3150000514008F0BCFE60B9386B0199C7F82C8088421C
S3150000515008D19DF8000078732671FFF779FF75E096
S315000051608A207BE0A57ADFF8509900F085FA386B43
S3150000517038B1B86A08F02FFF18B140F2B62100F036
S315000051807FF8019801993863C868786318B940F2C6
S31500005190BB2100F075F8D8F82000B96C814219D00F
S315000051A018B940F2C22100F06BF8D8F82010086850
S315000051B018B94FF4317100F063F8D8F82010B86AC6
S315000051C00A68904718B140F2C52100F059F8D8F89E
S315000051D02000B8640DF1080022A11C22FEF722FD72
S315000051E0786B418A0901ADF80E10417C090114392A
S315000051F0ADF8161002A9407C0001ADF81A00E0795E
S31500005200401E8041C00F8DF82100787C8DF8220069
S31500005210B86A08F0A7FE18B140F2E62100F030F8AF
S3150000522000F069FCA08B00F092FCE08B00F0ADFC76
S31500005230207A00F043FC9DF800007873267100F098
S3150000524036FD00F0FDFC284600F080FA97F90E10B6
S31500005250B86AC905091409F011F9002009B0BDE8BA
S31500005260F0830000000000000100000001010101C0
S315000052706400000064000000000000000B00000055
S315000052804846FDF72BBDDFF8D40700797047DFF8F5
S31500005290CC07B0F91800002854BF05216FF00401AF
S315000052A008180A2190FBF1F040B270470A2110FB62
S315000052B001F0FFE7F8B500F5D77140F27722914289
S315000052C001D38B20F2BDDFF85856DFF890472A6BE2
S315000052D00A26002A1EBFA17E01F0C001802911D036
S315000052E0E97B79B992F902100F4617FB06F7B84227
S315000052F0A1BF92F903100A4612FB06F28242B8BF1A
S3150000530011FB06F0297B61B10146A86A08F0D6FDBB
S3150000531018B140F23B3100F0DFFAA86A08F0E9FD67
S3150000532001E010FB06F020830020F2BD38B50446EC
S315000053300B38102839BFDFF8E8070068DFF8E417F4
S31500005340086888B10023002200212046FFF703FEEB
S3150000535050B104F01F051B2D06D22046FFF745FE6F
S3150000536010B928460B2800DAFF2032BDDFF8C01935
S315000053704008085C70477047C0B2704711F1630F70
S3150000538001DA0020704711F1240F01DBFF2070477E
S3150000539064310902481101EB90618904080E7047D7
S315000053A070B5DFF87C45DFF8EC590020E0646878DA
S315000053B030B109F06BF80246012A18BF032A01D161
S315000053C0002070BD606BDFF83439DFF81465002803
S315000053D01FBF216B09690029022A17D1E36470698E
S315000053E000F5FA707061607D18B10020002164221A
S315000053F003E0E87829794FF4A0722070A2806170EA
S315000054008021A878A070E180002031E0DFF82459DF
S315000054107269A94214D1DFF8A019E16402F57A7223
S315000054207261617D91B901792170012582780379D4
S3150000543090F903109540EB18CB185B1E63700DE0D6
S31500005440E36402F5FA727261617D19B1002222806D
S31500005450642105E041782170827862700178090143
S31500005460A1804179A17002891201E280C088000101
S31500005470A06000F01CFCE070A07841B2002948BF93
S315000054804042C0B270BD70B50446DFF8946425781A
S3150000549096F9160008B18C2070BD3065FFF780FFC5
S315000054A030766901DFF83824DFF8E8385078107371
S315000054B001F580715161987910B1AD1EEDB203E02E
S315000054C0306D40F002003065F17B81B9187870B11B
S315000054D0607881060BD5306D40F0010030656FF0C5
S315000054E00101B175506900F50870506102E04FF096
S315000054F0FF30B07508F0FBFF40B108F0F6FF012859
S31500005500316D0CBF0820102008433065032000F0E1
S315000055101DF96A1CB06A4FF4807392B2214608F0F6
S31500005520F4FF6D1CA84203DA40F2BB4100F0D4F947
S31500005530002070BD2DE9FC41DFF8E46396F91610F2
S315000055400025091D04296FF0030419D8DFE801F0CE
S315000055500A0A1C1C0300FFF796FF050014D000F092
S3150000556047FE7EE096F91600A0420CBF01210021FD
S3150000557000F03FFEB575B06A08F08CFB8D2071E037
S3150000558000F036FE8C206DE005F00AFCE0B1F06C10
S31500005590DFF86817884217D1307EA8B1DFF81C18EB
S315000055A00868002810D5DFF81808C168C160012214
S315000055B0006800F00F008240521E114204D100F034
S315000055C087FB642008F0EFFFFEF7A5FF804696F9FB
S315000055D0160010F1010F1CBF96F9160010F1020F0C
S315000055E02ED196F91600DFF8F8724042B075FEF734
S315000055F09DFA38620022B06A802109F027F8F46C1F
S31500005600B06A3979326D002C07F10C0306D108F027
S3150000561071FB010005D1002125200EE000933346E1
S31500005620A047D8B10020B0754FF0FF3139628C2504
S31500005630B06A08F02FFB00212620FFF71FFC0DE0C3
S3150000564096F91600A0420CBF0121002100F0D1FD01
